{
  "contractName": "TodoList",
  "abi": [
    {
      "inputs": [],
      "payable": false,
      "stateMutability": "nonpayable",
      "type": "constructor"
    },
    {
      "anonymous": false,
      "inputs": [
        {
          "indexed": false,
          "internalType": "uint256",
          "name": "id",
          "type": "uint256"
        },
        {
          "indexed": false,
          "internalType": "bool",
          "name": "completed",
          "type": "bool"
        }
      ],
      "name": "RecordCompleted",
      "type": "event"
    },
    {
      "anonymous": false,
      "inputs": [
        {
          "indexed": false,
          "internalType": "uint256",
          "name": "id",
          "type": "uint256"
        },
        {
          "indexed": false,
          "internalType": "string",
          "name": "content",
          "type": "string"
        },
        {
          "indexed": false,
          "internalType": "bool",
          "name": "completed",
          "type": "bool"
        }
      ],
      "name": "RecordCreated",
      "type": "event"
    },
    {
      "constant": true,
      "inputs": [],
      "name": "recordCount",
      "outputs": [
        {
          "internalType": "uint256",
          "name": "",
          "type": "uint256"
        }
      ],
      "payable": false,
      "stateMutability": "view",
      "type": "function"
    },
    {
      "constant": true,
      "inputs": [
        {
          "internalType": "uint256",
          "name": "",
          "type": "uint256"
        }
      ],
      "name": "records",
      "outputs": [
        {
          "internalType": "uint256",
          "name": "id",
          "type": "uint256"
        },
        {
          "internalType": "string",
          "name": "content",
          "type": "string"
        },
        {
          "internalType": "bool",
          "name": "completed",
          "type": "bool"
        }
      ],
      "payable": false,
      "stateMutability": "view",
      "type": "function"
    },
    {
      "constant": false,
      "inputs": [
        {
          "internalType": "string",
          "name": "_content",
          "type": "string"
        }
      ],
      "name": "createRecord",
      "outputs": [],
      "payable": false,
      "stateMutability": "nonpayable",
      "type": "function"
    },
    {
      "constant": false,
      "inputs": [
        {
          "internalType": "uint256",
          "name": "_id",
          "type": "uint256"
        }
      ],
      "name": "toggleCompleted",
      "outputs": [],
      "payable": false,
      "stateMutability": "nonpayable",
      "type": "function"
    }
  ],
  "bytecode": "0x60806040526000805534801561001457600080fd5b5060408051808201909152601c81527f436865636b206f75742076616363696e6174696f6e205265636f726400000000602082015261005b906001600160e01b0361006016565b61021f565b60008054600190810180835560408051606081018252828152602080820187815282840187905293865284815291909420845181559151805192936100ad93908501929190910190610184565b5060408201518160020160006101000a81548160ff0219169083151502179055509050507f3e79b484c486aeed275e1e7c6459224a185eced8a0d4bc8f96afbf5035aeeb37600054826000604051808481526020018060200183151515158152602001828103825284818151815260200191508051906020019080838360005b8381101561014557818101518382015260200161012d565b50505050905090810190601f1680156101725780820380516001836020036101000a031916815260200191505b5094505050505060405180910390a150565b828054600181600116156101000203166002900490600052602060002090601f016020900481019282601f106101c557805160ff19168380011785556101f2565b828001600101855582156101f2579182015b828111156101f25782518255916020019190600101906101d7565b506101fe929150610202565b5090565b61021c91905b808211156101fe5760008155600101610208565b90565b6106038061022e6000396000f3fe608060405234801561001057600080fd5b506004361061004c5760003560e01c80633446106714610051578063455f5024146100f8578063900407bc14610117578063db70504b14610131575b600080fd5b61006e6004803603602081101561006757600080fd5b50356101d7565b604051808481526020018060200183151515158152602001828103825284818151815260200191508051906020019080838360005b838110156100bb5781810151838201526020016100a3565b50505050905090810190601f1680156100e85780820380516001836020036101000a031916815260200191505b5094505050505060405180910390f35b6101156004803603602081101561010e57600080fd5b5035610286565b005b61011f6103e6565b60408051918252519081900360200190f35b6101156004803603602081101561014757600080fd5b81019060208101813564010000000081111561016257600080fd5b82018360208201111561017457600080fd5b8035906020019184600183028401116401000000008311171561019657600080fd5b91908080601f0160208091040260200160405190810160405280939291908181526020018383808284376000920191909152509295506103ec945050505050565b600160208181526000928352604092839020805481840180548651600296821615610100026000190190911695909504601f810185900485028601850190965285855290949193929091908301828280156102735780601f1061024857610100808354040283529160200191610273565b820191906000526020600020905b81548152906001019060200180831161025657829003601f168201915b5050506002909301549192505060ff1683565b61028e610510565b60008281526001602081815260409283902083516060810185528154815281840180548651600296821615610100026000190190911695909504601f810185900485028601850190965285855290949193858401939092908301828280156103375780601f1061030c57610100808354040283529160200191610337565b820191906000526020600020905b81548152906001019060200180831161031a57829003601f168201915b50505091835250506002919091015460ff1615156020918201526040808301805115905260008581526001808452919020835181558383015180519495508594919361038893850192910190610533565b50604091820151600291909101805460ff1916911515919091179055818101518151848152901515602082015281517f16388baa22ac3dd030d621b631adcfb7c8e0957ed08731c011c73e06894c6b01929181900390910190a15050565b60005481565b600080546001908101808355604080516060810182528281526020808201878152828401879052938652848152919094208451815591518051929361043993908501929190910190610533565b5060408201518160020160006101000a81548160ff0219169083151502179055509050507f3e79b484c486aeed275e1e7c6459224a185eced8a0d4bc8f96afbf5035aeeb37600054826000604051808481526020018060200183151515158152602001828103825284818151815260200191508051906020019080838360005b838110156104d15781810151838201526020016104b9565b50505050905090810190601f1680156104fe5780820380516001836020036101000a031916815260200191505b5094505050505060405180910390a150565b604051806060016040528060008152602001606081526020016000151581525090565b828054600181600116156101000203166002900490600052602060002090601f016020900481019282601f1061057457805160ff19168380011785556105a1565b828001600101855582156105a1579182015b828111156105a1578251825591602001919060010190610586565b506105ad9291506105b1565b5090565b6105cb91905b808211156105ad57600081556001016105b7565b9056fea265627a7a723158201c52c75ff2dc5eb89069da0a1ecad62d9dc556b144fa6b2810e40f493e82f94264736f6c63430005100032",
  "source": "pragma solidity ^0.5.0;\n\ncontract TodoList {\n  uint public recordCount = 0;\n\n  struct Record {\n    uint id;\n    string content;\n    bool completed;\n  }\n\n  mapping(uint => Record) public records;\n\n  event RecordCreated(\n    uint id,\n    string content,\n    bool completed\n  );\n\n  event RecordCompleted(\n    uint id,\n    bool completed\n  );\n\n  constructor() public {\n    createRecord(\"Check out vaccination Record\");\n  }\n\n  function createRecord(string memory _content) public {\n    recordCount ++;\n    records[recordCount] = Record(recordCount, _content, false);\n    emit RecordCreated(recordCount, _content, false);\n  }\n\n  function toggleCompleted(uint _id) public {\n    Record memory _record = records[_id];\n    _record.completed = !_record.completed;\n    records[_id] = _record;\n    emit RecordCompleted(_id, _record.completed);\n  }\n\n}\n",
  "sourcePath": "/home/shubhada/Desktop/Universal-Vaccination-Passport/contracts/TodoList.sol",
  "compiler": {
    "name": "solc",
    "version": "0.5.16+commit.9c3226ce.Emscripten.clang"
  },
  "schemaVersion": "3.4.7",
  "updatedAt": "2022-04-29T03:46:08.226Z",
  "networkType": "ethereum",
  "devdoc": {
    "methods": {}
  },
  "userdoc": {
    "methods": {}
  }
}